{
  "contractName": "apple",
  "abi": [
    {
      "constant": true,
      "inputs": [
        {
          "name": "",
          "type": "address"
        }
      ],
      "name": "AppleAdress",
      "outputs": [
        {
          "name": "",
          "type": "uint256"
        }
      ],
      "payable": false,
      "stateMutability": "view",
      "type": "function"
    },
    {
      "constant": true,
      "inputs": [
        {
          "name": "",
          "type": "uint256"
        }
      ],
      "name": "apples",
      "outputs": [
        {
          "name": "id",
          "type": "uint256"
        },
        {
          "name": "Address",
          "type": "address"
        },
        {
          "name": "name",
          "type": "string"
        },
        {
          "name": "location",
          "type": "string"
        },
        {
          "name": "depth",
          "type": "uint256"
        },
        {
          "name": "length",
          "type": "uint256"
        },
        {
          "name": "cost",
          "type": "uint256"
        },
        {
          "name": "startDate",
          "type": "string"
        },
        {
          "name": "endDate",
          "type": "string"
        },
        {
          "name": "status",
          "type": "bool"
        }
      ],
      "payable": false,
      "stateMutability": "view",
      "type": "function"
    },
    {
      "constant": false,
      "inputs": [
        {
          "name": "name",
          "type": "string"
        },
        {
          "name": "location",
          "type": "string"
        },
        {
          "name": "depth",
          "type": "uint256"
        },
        {
          "name": "length",
          "type": "uint256"
        },
        {
          "name": "cost",
          "type": "uint256"
        },
        {
          "name": "sdate",
          "type": "string"
        },
        {
          "name": "edate",
          "type": "string"
        }
      ],
      "name": "application",
      "outputs": [],
      "payable": false,
      "stateMutability": "nonpayable",
      "type": "function"
    },
    {
      "constant": false,
      "inputs": [
        {
          "name": "ApplicationID",
          "type": "uint256"
        }
      ],
      "name": "setstatues",
      "outputs": [],
      "payable": false,
      "stateMutability": "nonpayable",
      "type": "function"
    },
    {
      "constant": true,
      "inputs": [
        {
          "name": "_id",
          "type": "uint256"
        }
      ],
      "name": "getApplications",
      "outputs": [
        {
          "name": "",
          "type": "string"
        },
        {
          "name": "",
          "type": "string"
        },
        {
          "name": "",
          "type": "uint256"
        },
        {
          "name": "",
          "type": "uint256"
        },
        {
          "name": "",
          "type": "uint256"
        },
        {
          "name": "",
          "type": "string"
        },
        {
          "name": "",
          "type": "string"
        },
        {
          "name": "",
          "type": "bool"
        }
      ],
      "payable": false,
      "stateMutability": "view",
      "type": "function"
    },
    {
      "constant": true,
      "inputs": [],
      "name": "ArrayLength",
      "outputs": [
        {
          "name": "",
          "type": "uint256"
        }
      ],
      "payable": false,
      "stateMutability": "view",
      "type": "function"
    }
  ],
  "bytecode": "0x60806040526000805534801561001457600080fd5b5061155f806100246000396000f3fe608060405234801561001057600080fd5b50600436106100625760003560e01c80630b87a2e6146100675780632122c28614610085578063747a96f0146100dd5780638c45ab8a1461010b578063bc8c937d14610350578063fab14e9c1461055b575b600080fd5b61006f6107f9565b6040518082815260200191505060405180910390f35b6100c76004803603602081101561009b57600080fd5b81019080803573ffffffffffffffffffffffffffffffffffffffff169060200190929190505050610802565b6040518082815260200191505060405180910390f35b610109600480360360208110156100f357600080fd5b810190808035906020019092919050505061081a565b005b6101376004803603602081101561012157600080fd5b8101908080359060200190929190505050610c4a565b604051808b81526020018a73ffffffffffffffffffffffffffffffffffffffff1673ffffffffffffffffffffffffffffffffffffffff168152602001806020018060200189815260200188815260200187815260200180602001806020018615151515815260200185810385528d818151815260200191508051906020019080838360005b838110156101d75780820151818401526020810190506101bc565b50505050905090810190601f1680156102045780820380516001836020036101000a031916815260200191505b5085810384528c818151815260200191508051906020019080838360005b8381101561023d578082015181840152602081019050610222565b50505050905090810190601f16801561026a5780820380516001836020036101000a031916815260200191505b50858103835288818151815260200191508051906020019080838360005b838110156102a3578082015181840152602081019050610288565b50505050905090810190601f1680156102d05780820380516001836020036101000a031916815260200191505b50858103825287818151815260200191508051906020019080838360005b838110156103095780820151818401526020810190506102ee565b50505050905090810190601f1680156103365780820380516001836020036101000a031916815260200191505b509e50505050505050505050505050505060405180910390f35b61037c6004803603602081101561036657600080fd5b8101908080359060200190929190505050610f2e565b60405180806020018060200189815260200188815260200187815260200180602001806020018615151515815260200185810385528d818151815260200191508051906020019080838360005b838110156103e45780820151818401526020810190506103c9565b50505050905090810190601f1680156104115780820380516001836020036101000a031916815260200191505b5085810384528c818151815260200191508051906020019080838360005b8381101561044a57808201518184015260208101905061042f565b50505050905090810190601f1680156104775780820380516001836020036101000a031916815260200191505b50858103835288818151815260200191508051906020019080838360005b838110156104b0578082015181840152602081019050610495565b50505050905090810190601f1680156104dd5780820380516001836020036101000a031916815260200191505b50858103825287818151815260200191508051906020019080838360005b838110156105165780820151818401526020810190506104fb565b50505050905090810190601f1680156105435780820380516001836020036101000a031916815260200191505b509c5050505050505050505050505060405180910390f35b6107f7600480360360e081101561057157600080fd5b810190808035906020019064010000000081111561058e57600080fd5b8201836020820111156105a057600080fd5b803590602001918460018302840111640100000000831117156105c257600080fd5b91908080601f016020809104026020016040519081016040528093929190818152602001838380828437600081840152601f19601f8201169050808301925050505050505091929192908035906020019064010000000081111561062557600080fd5b82018360208201111561063757600080fd5b8035906020019184600183028401116401000000008311171561065957600080fd5b91908080601f016020809104026020016040519081016040528093929190818152602001838380828437600081840152601f19601f820116905080830192505050505050509192919290803590602001909291908035906020019092919080359060200190929190803590602001906401000000008111156106da57600080fd5b8201836020820111156106ec57600080fd5b8035906020019184600183028401116401000000008311171561070e57600080fd5b91908080601f016020809104026020016040519081016040528093929190818152602001838380828437600081840152601f19601f8201169050808301925050505050505091929192908035906020019064010000000081111561077157600080fd5b82018360208201111561078357600080fd5b803590602001918460018302840111640100000000831117156107a557600080fd5b91908080601f016020809104026020016040519081016040528093929190818152602001838380828437600081840152601f19601f82011690508083019250505050505050919291929050505061127c565b005b60006014905090565b60c96020528060005260406000206000915090505481565b600080905060405160200180807f4d6164696e6168000000000000000000000000000000000000000000000000008152506007019050604051602081830303815290604052805190602001206001836014811061087357fe5b600a020160030160405160200180828054600181600116156101000203166002900480156108d85780601f106108b65761010080835404028352918201916108d8565b820191906000526020600020905b8154815290600101906020018083116108c4575b50509150506040516020818303038152906040528051906020012014610966576040517f08c379a00000000000000000000000000000000000000000000000000000000081526004018080602001828103825260148152602001807f4c6f636174696f6e206e6f74204d6164696e616800000000000000000000000081525060200191505060405180910390fd5b60506001836014811061097557fe5b600a020160050154106109f0576040517f08c379a00000000000000000000000000000000000000000000000000000000081526004018080602001828103825260158152602001807f4c656e67746820626967676572207468616e203830000000000000000000000081525060200191505060405180910390fd5b6050600183601481106109ff57fe5b600a02016004015410610a7a576040517f08c379a00000000000000000000000000000000000000000000000000000000081526004018080602001828103825260148152602001807f446570746820626967676572207468616e20383000000000000000000000000081525060200191505060405180910390fd5b60008090505b6014811015610bbf5760018160148110610a9657fe5b600a02016007016040516020018082805460018160011615610100020316600290048015610afb5780601f10610ad9576101008083540402835291820191610afb565b820191906000526020600020905b815481529060010190602001808311610ae7575b50509150506040516020818303038152906040528051906020012060018460148110610b2357fe5b600a02016007016040516020018082805460018160011615610100020316600290048015610b885780601f10610b66576101008083540402835291820191610b88565b820191906000526020600020905b815481529060010190602001808311610b74575b5050915050604051602081830303815290604052805190602001201415610bb25781806001019250505b8080600101915050610a80565b506002811115610c1a576040517f08c379a000000000000000000000000000000000000000000000000000000000815260040180806020018281038252602b815260200180611509602b913960400191505060405180910390fd5b6001808360148110610c2857fe5b600a020160090160006101000a81548160ff0219169083151502179055505050565b60018160148110610c5757fe5b600a02016000915090508060000154908060010160009054906101000a900473ffffffffffffffffffffffffffffffffffffffff1690806002018054600181600116156101000203166002900480601f016020809104026020016040519081016040528092919081815260200182805460018160011615610100020316600290048015610d255780601f10610cfa57610100808354040283529160200191610d25565b820191906000526020600020905b815481529060010190602001808311610d0857829003601f168201915b505050505090806003018054600181600116156101000203166002900480601f016020809104026020016040519081016040528092919081815260200182805460018160011615610100020316600290048015610dc35780601f10610d9857610100808354040283529160200191610dc3565b820191906000526020600020905b815481529060010190602001808311610da657829003601f168201915b505050505090806004015490806005015490806006015490806007018054600181600116156101000203166002900480601f016020809104026020016040519081016040528092919081815260200182805460018160011615610100020316600290048015610e735780601f10610e4857610100808354040283529160200191610e73565b820191906000526020600020905b815481529060010190602001808311610e5657829003601f168201915b505050505090806008018054600181600116156101000203166002900480601f016020809104026020016040519081016040528092919081815260200182805460018160011615610100020316600290048015610f115780601f10610ee657610100808354040283529160200191610f11565b820191906000526020600020905b815481529060010190602001808311610ef457829003601f168201915b5050505050908060090160009054906101000a900460ff1690508a565b606080600080600060608060008089905060018160148110610f4c57fe5b600a020160020160018260148110610f6057fe5b600a020160030160018360148110610f7457fe5b600a02016004015460018460148110610f8957fe5b600a02016005015460018560148110610f9e57fe5b600a02016006015460018660148110610fb357fe5b600a020160070160018760148110610fc757fe5b600a020160080160018860148110610fdb57fe5b600a020160090160009054906101000a900460ff16878054600181600116156101000203166002900480601f0160208091040260200160405190810160405280929190818152602001828054600181600116156101000203166002900480156110855780601f1061105a57610100808354040283529160200191611085565b820191906000526020600020905b81548152906001019060200180831161106857829003601f168201915b50505050509750868054600181600116156101000203166002900480601f0160208091040260200160405190810160405280929190818152602001828054600181600116156101000203166002900480156111215780601f106110f657610100808354040283529160200191611121565b820191906000526020600020905b81548152906001019060200180831161110457829003601f168201915b50505050509650828054600181600116156101000203166002900480601f0160208091040260200160405190810160405280929190818152602001828054600181600116156101000203166002900480156111bd5780601f10611192576101008083540402835291602001916111bd565b820191906000526020600020905b8154815290600101906020018083116111a057829003601f168201915b50505050509250818054600181600116156101000203166002900480601f0160208091040260200160405190810160405280929190818152602001828054600181600116156101000203166002900480156112595780601f1061122e57610100808354040283529160200191611259565b820191906000526020600020905b81548152906001019060200180831161123c57829003601f168201915b505050505091509850985098509850985098509850985050919395975091939597565b60405180610140016040528060005481526020013373ffffffffffffffffffffffffffffffffffffffff168152602001888152602001878152602001868152602001858152602001848152602001838152602001828152602001600015158152506001600054601481106112ec57fe5b600a02016000820151816000015560208201518160010160006101000a81548173ffffffffffffffffffffffffffffffffffffffff021916908373ffffffffffffffffffffffffffffffffffffffff160217905550604082015181600201908051906020019061135d929190611463565b50606082015181600301908051906020019061137a929190611463565b506080820151816004015560a0820151816005015560c0820151816006015560e08201518160070190805190602001906113b5929190611463565b506101008201518160080190805190602001906113d3929190611463565b506101208201518160090160006101000a81548160ff02191690831515021790555090505060005460c960003373ffffffffffffffffffffffffffffffffffffffff1673ffffffffffffffffffffffffffffffffffffffff1681526020019081526020016000208190555061144960005461081a565b600080815480929190600101919050555050505050505050565b828054600181600116156101000203166002900490600052602060002090601f016020900481019282601f106114a457805160ff19168380011785556114d2565b828001600101855582156114d2579182015b828111156114d15782518255916020019190600101906114b6565b5b5090506114df91906114e3565b5090565b61150591905b808211156115015760008160009055506001016114e9565b5090565b9056fe4d6f7265207468616e2032206170706c69636174696f6e732073746172742061742073616d652064617465a165627a7a72305820b6d8cdc725a283f0e625ea143db33fe001265ef67d6cd465126f665f95bed3a00029",
  "source": "pragma solidity ^0.5.1;\r\n\r\ncontract apple {\r\nuint id = 0;\r\n\r\nstruct Apple{\r\nuint id;\r\naddress Address;\r\nstring name;\r\nstring location;\r\nuint depth;\r\nuint length;\r\nuint cost;\r\n\r\nstring startDate;\r\nstring endDate;\r\nbool status;\r\n\r\n}\r\n\r\nApple[20] public apples;\r\n\r\nmapping (address => uint) public AppleAdress;\r\n\r\n function application(string memory name, string memory location, uint depth, uint length, uint cost,\r\n  string memory sdate, string memory edate) public {\r\n        apples[id] = Apple(id, msg.sender,name, location, depth, length, cost, sdate, edate, false);\r\n       AppleAdress[msg.sender] = id;\r\n       setstatues(id);\r\n        id++;\r\n        }\r\n\r\n    function setstatues (uint ApplicationID) public {\r\n        uint orgCount = 0;\r\n        require(keccak256(abi.encodePacked(apples[ApplicationID].location)) == keccak256(abi.encodePacked((\"Madinah\"))),\"Location not Madinah\");\r\n        require(apples[ApplicationID].length < 80, \"Length bigger than 80\");\r\n        require(apples[ApplicationID].depth < 80, \"Depth bigger than 80\");\r\n    \r\n        for (uint i = 0; i < apples.length; i++){\r\n       if (keccak256(abi.encodePacked(apples[ApplicationID].startDate)) == keccak256(abi.encodePacked((apples[i].startDate)))){\r\n           orgCount++;\r\n       }\r\n        }\r\n        require(orgCount <= 2,\"More than 2 applications start at same date\");\r\n        apples[ApplicationID].status = true;\r\n    }\r\n    \r\n    function getApplications (uint _id) public view returns\r\n    (string memory, string memory , uint, uint, uint, string memory, string memory, bool){\r\n        uint idd = _id;\r\n        \r\n        return (apples[idd].name, apples[idd].location, apples[idd].depth, apples[idd].length,\r\n             apples[idd].cost, apples[idd].startDate, apples[idd].endDate, apples[idd].status);\r\n    }\r\n\r\n        function ArrayLength () public view returns (uint) {\r\n            return apples.length;\r\n        }\r\n\r\n   \r\n    }//Contract\r\n    \r\n   \r\n\r\n",
  "sourcePath": "D:/Docs/DigSiteCenter/contracts/Application.sol",
  "compiler": {
    "name": "solc",
    "version": "0.5.8+commit.23d335f2.Emscripten.clang"
  },
  "schemaVersion": "3.0.11",
  "updatedAt": "2019-07-22T11:42:12.733Z",
  "devdoc": {
    "methods": {}
  },
  "userdoc": {
    "methods": {}
  }
}