{
  "contractName": "apple",
  "abi": [
    {
      "constant": true,
      "inputs": [
        {
          "name": "",
          "type": "address"
        }
      ],
      "name": "AppleAdress",
      "outputs": [
        {
          "name": "",
          "type": "uint256"
        }
      ],
      "payable": false,
      "stateMutability": "view",
      "type": "function"
    },
    {
      "constant": true,
      "inputs": [
        {
          "name": "",
          "type": "uint256"
        }
      ],
      "name": "apples",
      "outputs": [
        {
          "name": "id",
          "type": "uint256"
        },
        {
          "name": "Address",
          "type": "address"
        },
        {
          "name": "name",
          "type": "string"
        },
        {
          "name": "location",
          "type": "string"
        },
        {
          "name": "depth",
          "type": "uint256"
        },
        {
          "name": "length",
          "type": "uint256"
        },
        {
          "name": "cost",
          "type": "uint256"
        },
        {
          "name": "startDate",
          "type": "string"
        },
        {
          "name": "endDate",
          "type": "string"
        },
        {
          "name": "status",
          "type": "bool"
        }
      ],
      "payable": false,
      "stateMutability": "view",
      "type": "function"
    },
    {
      "constant": false,
      "inputs": [
        {
          "name": "name",
          "type": "string"
        },
        {
          "name": "location",
          "type": "string"
        },
        {
          "name": "depth",
          "type": "uint256"
        },
        {
          "name": "length",
          "type": "uint256"
        },
        {
          "name": "cost",
          "type": "uint256"
        },
        {
          "name": "sdate",
          "type": "string"
        },
        {
          "name": "edate",
          "type": "string"
        }
      ],
      "name": "application",
      "outputs": [],
      "payable": false,
      "stateMutability": "nonpayable",
      "type": "function"
    },
    {
      "constant": false,
      "inputs": [
        {
          "name": "ApplicationID",
          "type": "uint256"
        }
      ],
      "name": "setstatues",
      "outputs": [],
      "payable": false,
      "stateMutability": "nonpayable",
      "type": "function"
    }
  ],
  "bytecode": "0x60806040526000805534801561001457600080fd5b50610fc9806100246000396000f3fe608060405234801561001057600080fd5b506004361061004c5760003560e01c80632122c28614610051578063747a96f0146100a95780638c45ab8a146100d7578063fab14e9c1461031c575b600080fd5b6100936004803603602081101561006757600080fd5b81019080803573ffffffffffffffffffffffffffffffffffffffff1690602001909291905050506105ba565b6040518082815260200191505060405180910390f35b6100d5600480360360208110156100bf57600080fd5b81019080803590602001909291905050506105d2565b005b610103600480360360208110156100ed57600080fd5b8101908080359060200190929190505050610a02565b604051808b81526020018a73ffffffffffffffffffffffffffffffffffffffff1673ffffffffffffffffffffffffffffffffffffffff168152602001806020018060200189815260200188815260200187815260200180602001806020018615151515815260200185810385528d818151815260200191508051906020019080838360005b838110156101a3578082015181840152602081019050610188565b50505050905090810190601f1680156101d05780820380516001836020036101000a031916815260200191505b5085810384528c818151815260200191508051906020019080838360005b838110156102095780820151818401526020810190506101ee565b50505050905090810190601f1680156102365780820380516001836020036101000a031916815260200191505b50858103835288818151815260200191508051906020019080838360005b8381101561026f578082015181840152602081019050610254565b50505050905090810190601f16801561029c5780820380516001836020036101000a031916815260200191505b50858103825287818151815260200191508051906020019080838360005b838110156102d55780820151818401526020810190506102ba565b50505050905090810190601f1680156103025780820380516001836020036101000a031916815260200191505b509e50505050505050505050505050505060405180910390f35b6105b8600480360360e081101561033257600080fd5b810190808035906020019064010000000081111561034f57600080fd5b82018360208201111561036157600080fd5b8035906020019184600183028401116401000000008311171561038357600080fd5b91908080601f016020809104026020016040519081016040528093929190818152602001838380828437600081840152601f19601f820116905080830192505050505050509192919290803590602001906401000000008111156103e657600080fd5b8201836020820111156103f857600080fd5b8035906020019184600183028401116401000000008311171561041a57600080fd5b91908080601f016020809104026020016040519081016040528093929190818152602001838380828437600081840152601f19601f8201169050808301925050505050505091929192908035906020019092919080359060200190929190803590602001909291908035906020019064010000000081111561049b57600080fd5b8201836020820111156104ad57600080fd5b803590602001918460018302840111640100000000831117156104cf57600080fd5b91908080601f016020809104026020016040519081016040528093929190818152602001838380828437600081840152601f19601f8201169050808301925050505050505091929192908035906020019064010000000081111561053257600080fd5b82018360208201111561054457600080fd5b8035906020019184600183028401116401000000008311171561056657600080fd5b91908080601f016020809104026020016040519081016040528093929190818152602001838380828437600081840152601f19601f820116905080830192505050505050509192919290505050610ce6565b005b60c96020528060005260406000206000915090505481565b600080905060405160200180807f4d6164696e6168000000000000000000000000000000000000000000000000008152506007019050604051602081830303815290604052805190602001206001836014811061062b57fe5b600a020160030160405160200180828054600181600116156101000203166002900480156106905780601f1061066e576101008083540402835291820191610690565b820191906000526020600020905b81548152906001019060200180831161067c575b5050915050604051602081830303815290604052805190602001201461071e576040517f08c379a00000000000000000000000000000000000000000000000000000000081526004018080602001828103825260148152602001807f4c6f636174696f6e206e6f74204d6164696e616800000000000000000000000081525060200191505060405180910390fd5b60506001836014811061072d57fe5b600a020160050154106107a8576040517f08c379a00000000000000000000000000000000000000000000000000000000081526004018080602001828103825260158152602001807f4c656e67746820626967676572207468616e203830000000000000000000000081525060200191505060405180910390fd5b6050600183601481106107b757fe5b600a02016004015410610832576040517f08c379a00000000000000000000000000000000000000000000000000000000081526004018080602001828103825260148152602001807f446570746820626967676572207468616e20383000000000000000000000000081525060200191505060405180910390fd5b60008090505b6014811015610977576001816014811061084e57fe5b600a020160070160405160200180828054600181600116156101000203166002900480156108b35780601f106108915761010080835404028352918201916108b3565b820191906000526020600020905b81548152906001019060200180831161089f575b505091505060405160208183030381529060405280519060200120600184601481106108db57fe5b600a020160070160405160200180828054600181600116156101000203166002900480156109405780601f1061091e576101008083540402835291820191610940565b820191906000526020600020905b81548152906001019060200180831161092c575b505091505060405160208183030381529060405280519060200120141561096a5781806001019250505b8080600101915050610838565b5060028111156109d2576040517f08c379a000000000000000000000000000000000000000000000000000000000815260040180806020018281038252602b815260200180610f73602b913960400191505060405180910390fd5b60018083601481106109e057fe5b600a020160090160006101000a81548160ff0219169083151502179055505050565b60018160148110610a0f57fe5b600a02016000915090508060000154908060010160009054906101000a900473ffffffffffffffffffffffffffffffffffffffff1690806002018054600181600116156101000203166002900480601f016020809104026020016040519081016040528092919081815260200182805460018160011615610100020316600290048015610add5780601f10610ab257610100808354040283529160200191610add565b820191906000526020600020905b815481529060010190602001808311610ac057829003601f168201915b505050505090806003018054600181600116156101000203166002900480601f016020809104026020016040519081016040528092919081815260200182805460018160011615610100020316600290048015610b7b5780601f10610b5057610100808354040283529160200191610b7b565b820191906000526020600020905b815481529060010190602001808311610b5e57829003601f168201915b505050505090806004015490806005015490806006015490806007018054600181600116156101000203166002900480601f016020809104026020016040519081016040528092919081815260200182805460018160011615610100020316600290048015610c2b5780601f10610c0057610100808354040283529160200191610c2b565b820191906000526020600020905b815481529060010190602001808311610c0e57829003601f168201915b505050505090806008018054600181600116156101000203166002900480601f016020809104026020016040519081016040528092919081815260200182805460018160011615610100020316600290048015610cc95780601f10610c9e57610100808354040283529160200191610cc9565b820191906000526020600020905b815481529060010190602001808311610cac57829003601f168201915b5050505050908060090160009054906101000a900460ff1690508a565b60405180610140016040528060005481526020013373ffffffffffffffffffffffffffffffffffffffff16815260200188815260200187815260200186815260200185815260200184815260200183815260200182815260200160001515815250600160005460148110610d5657fe5b600a02016000820151816000015560208201518160010160006101000a81548173ffffffffffffffffffffffffffffffffffffffff021916908373ffffffffffffffffffffffffffffffffffffffff1602179055506040820151816002019080519060200190610dc7929190610ecd565b506060820151816003019080519060200190610de4929190610ecd565b506080820151816004015560a0820151816005015560c0820151816006015560e0820151816007019080519060200190610e1f929190610ecd565b50610100820151816008019080519060200190610e3d929190610ecd565b506101208201518160090160006101000a81548160ff02191690831515021790555090505060005460c960003373ffffffffffffffffffffffffffffffffffffffff1673ffffffffffffffffffffffffffffffffffffffff16815260200190815260200160002081905550610eb36000546105d2565b600080815480929190600101919050555050505050505050565b828054600181600116156101000203166002900490600052602060002090601f016020900481019282601f10610f0e57805160ff1916838001178555610f3c565b82800160010185558215610f3c579182015b82811115610f3b578251825591602001919060010190610f20565b5b509050610f499190610f4d565b5090565b610f6f91905b80821115610f6b576000816000905550600101610f53565b5090565b9056fe4d6f7265207468616e2032206170706c69636174696f6e732073746172742061742073616d652064617465a165627a7a7230582069b047b6b846e9440050a0aa825c74d4980ae03b397003c548db7ebda1f707290029",
  "source": "pragma solidity ^0.5.1;\r\n\r\ncontract apple {\r\nuint id = 0;\r\n\r\nstruct Apple{\r\nuint id;\r\naddress Address;\r\nstring name;\r\nstring location;\r\nuint depth;\r\nuint length;\r\nuint cost;\r\n\r\nstring startDate;\r\nstring endDate;\r\nbool status;\r\n\r\n}\r\n\r\nApple[20] public apples;\r\n\r\nmapping (address => uint) public AppleAdress;\r\n\r\n function application(string memory name, string memory location, uint depth, uint length, uint cost,\r\n  string memory sdate, string memory edate) public {\r\n        apples[id] = Apple(id, msg.sender,name, location, depth, length, cost, sdate, edate, false);\r\n       AppleAdress[msg.sender] = id;\r\n       setstatues(id);\r\n        id++;\r\n        }\r\n\r\n    function setstatues (uint ApplicationID) public {\r\n        uint orgCount = 0;\r\n        require(keccak256(abi.encodePacked(apples[ApplicationID].location)) == keccak256(abi.encodePacked((\"Madinah\"))),\"Location not Madinah\");\r\n        require(apples[ApplicationID].length < 80, \"Length bigger than 80\");\r\n        require(apples[ApplicationID].depth < 80, \"Depth bigger than 80\");\r\n    \r\n        for (uint i = 0; i < apples.length; i++){\r\n       if (keccak256(abi.encodePacked(apples[ApplicationID].startDate)) == keccak256(abi.encodePacked((apples[i].startDate)))){\r\n           orgCount++;\r\n       }\r\n        }\r\n        require(orgCount <= 2,\"More than 2 applications start at same date\");\r\n        apples[ApplicationID].status = true;\r\n    }\r\n    \r\n   \r\n}\r\n",
  "sourcePath": "D:/Docs/DigSiteCenter/contracts/Application.sol",
  "compiler": {
    "name": "solc",
    "version": "0.5.8+commit.23d335f2.Emscripten.clang"
  },
  "schemaVersion": "3.0.11",
  "updatedAt": "2019-07-18T11:45:14.042Z",
  "devdoc": {
    "methods": {}
  },
  "userdoc": {
    "methods": {}
  }
}